:020000040000FA
:1000000080317328053008007E1480314E01961E21
:100010000A280B2813288C1E0E280F2813288F312E
:100020003827803171280B1F162817287128991C32
:100030001A281B2826288F1C1E281F282628400126
:1000400031088A0030080A0080317128191C2928DB
:100050002A282F280F1C2D282E282F281F28191E4C
:10006000322833283E280F1E362837283E284001E4
:100070002F088A002E080A0080317128991E412815
:1000800042284D288F1E452846284D2841015908F1
:100090008A0058080A0080317128171C50285128FE
:1000A00059280D1C5428552859288D31CC258031CC
:1000B0007128971C5C285D2865288D1C60286128A4
:1000C00065288D31DB25803171281A1C6828692844
:1000D0007128101C6C286D2871288E318026803183
:1000E00071287E10090080317528703084008D30B1
:1000F000850062308600003087000B308D31092585
:1001000080311E3084008D308500E2308600003062
:10011000870008308D3109258031FD0120308400B1
:10012000003085002A308D3103258031A0308400D5
:100130000030850042308D3103258031203084002D
:100140000130850048308D3103258031A030840096
:100150000130850040308D3103258031203084000E
:100160000230850021308D31032580317E10400121
:100170008031BA288E31FF2680318D312F25803194
:100180008C31DF248031003A0319C728C828C028E1
:1001900080304001CD000C30CE008C31F72480310E
:1001A00061304001CD000330CE008C31E524803138
:1001B0008B170B1740013E080319DF28E028DA28C7
:1001C000BE013A2B40013A080319E728E828552ACE
:1001D000BA0162308600870141015A08C03F5B08BE
:1001E000C13F5D084001E50041015C084001E400B9
:1001F00041015F084001E70041015E084001E6005F
:10020000410161084001E900410160084001E80046
:100210000F3062054101EA000A306A020318112911
:1002200012292429400162084101EA000430EA361B
:10023000890B172906306A0203181F29202924294F
:100240004001B901B90A26294001B9010F306305FF
:100250004101EA000A306A0203182F293029422995
:10026000400163084101EA000430EA36890B352970
:1002700006306A0203183D293E2942294001B8018F
:10028000B80A44294001B8010F3064054101EA0071
:100290000A306A0203184D294E2966294001640874
:1002A0004101EA000430EA36890B532903306A021F
:1002B00003185B295C296629243040016402031875
:1002C000622963296629B701B70A68294001B70185
:1002D0000F3065054101EA0007306A0203187129F1
:1002E00072298329400165084101EA000430EA3699
:1002F000890B77296A08031D7E297F2983294001FC
:10030000B601B60A85294001B6010F3066054101E4
:10031000EA000A306A0203188E298F29A7294001B2
:1003200066084101EA000430EA36890B942904305A
:100330006A0203189C299D29A729323040016602D0
:100340000318A329A429A729B501B50AA9294001A1
:10035000B5010F3067054101EA000A306A0203184F
:10036000B229B329CB29400167084101EA000430D2
:10037000EA36890BB82902306A020318C029C1295C
:10038000CB291330400167020318C729C829CB299C
:10039000B401B40ACD294001B4010F306805410110
:1003A000EA000A306A020318D629D729E929400150
:1003B00068084101EA000430EA36890BDC290A307A
:1003C0006A020318E429E529E9294001B301B30AC7
:1003D000EB294001B3016908031DEF29F029F32936
:1003E000B201B20AF429B20139080319F829F9292E
:1003F000552A38080319FD29FE29552A37080319FB
:10040000022A032A552A36080319072A082A552AD8
:10041000350803190C2A0D2A552A34080319112A04
:10042000122A552A33080319162A172A552A320880
:1004300003191B2A1C2A552AC101C10A620841015D
:10044000EA006A084301C000400163084101EA0074
:100450006A084301C100400164084101EA006A08DA
:100460004301C200400165084101EA006A084301F6
:10047000C300400166084101EA006A084301C40064
:10048000400167084101EA006A084301C5004001D4
:1004900068084101EA006A084301C6004001690892
:1004A0004101EA006A084301C700400141080319FD
:1004B0005A2A5B2A602AC1018E3108268031512BCD
:1004C000C201C20AC2018D31F9258031512B400190
:1004D000BB0106303B02031C6E2A6F2A702A512B87
:1004E0003B088331D423803101304101EA006A089E
:1004F0004001BB07692A4001C001C00A4008031936
:10050000822A832A512BC001430120084101EA00BD
:100510006A08E200430121084101EA006A08E30099
:10052000430122084101EA006A08E400430123086C
:100530004101EA006A08E500430124084101EA009C
:100540006A08E600430125084101EA006A08E7005D
:10055000430126084101EA006A08E800E901E230A7
:1005600086008701403F4201D400413FD500410150
:1005700065084201D700410164084201D6004101EB
:1005800067084201D900410166084201D8004101D3
:1005900069084201DB00410168084201DA004101BB
:1005A0003F084201DD0041013E084201DC004101FB
:1005B00041084201DF00410140084201DE004101E3
:1005C00043084201E100410142084201E0004101CB
:1005D00045084201E300410144084201E2004101B3
:1005E00047084201E500410146084201E40041019B
:1005F00049084201E700410148084201E600543041
:100600004101EA006A084001D6001430D7000030EA
:10061000D8002030873158278031512B4001BF014D
:10062000BF0A3F080319152B162B512BBF01FF30B2
:100630004101DA00FF30DB00FF30DC00FF30DD007D
:10064000FF30DE00FF30DF00FF30E000FF30E10070
:100650004001BA01BA0ADA304101EA006A084001F1
:10066000D2000830D3000030D40020308F31DC2796
:100670008031512B3C084101EA00EB016B08003A44
:100680000319432B512B6A08003A0319E228013A57
:100690000319672A033A03197B2A013A03190E2B1F
:1006A000512B01304101EA006A084001BC070430C7
:1006B0003C02031C5C2B5D2BDA28BC01DA2880315C
:1006C0007328B62B00308631FB26833102308C3103
:1006D0008C2483314001BD01BD0AD32B013086310A
:1006E000FB26833115308C318C2483310230F500A8
:1006F00075084001BD00D32B02308631FB268331C3
:1007000010308C318C2483310330F50075084001A2
:10071000BD00D32B03308631FB26833111308C3161
:100720008C2483310430F50075084001BD00D32BC3
:1007300004308631FB26833112308C318C24833196
:100740000530F50075084001BD00D32B053086311A
:10075000FB2683310E308C318C2483314001BD0166
:10076000D32B0E308C318C248331AE2B40013D08CD
:10077000F500F6017608003A0319BF2BB12B750876
:10078000003A0319622B013A03196E2B033A03193D
:100790007C2B013A03198A2B073A0319982B013A4B
:1007A0000319A62BB12B08004001E10006306102BD
:1007B0000318DB2BDC2B3C2C3D08D9005908E0004A
:1007C0006135383E860001308700403FDE00413F02
:1007D000DF003D0861060319EE2BEF2BF52B6008B7
:1007E0003D060319F42BF52BDC2B5E08CD005F08CA
:1007F000CE00CF01D0016108D900DA01D935DA0D78
:1008000020305907840090305A3D8500003FDB00BE
:10081000013FDC005B08D1005C08D200D301D401A9
:1008200086319826833140016108DD000130DD35D5
:10083000FF3E031D172C5D35203E860001308700EA
:100840004D08C03F4E08C13F4F08C23F5008C33F4C
:100850006108D9000130D935FF3E031D2B2C5935D5
:10086000223E8600013087006135BE3E840085014E
:10087000403F803F413F813F08008C31D324843189
:10088000003A0319442C452C752C522C8C319B2496
:100890008431942C8C31A0248431942C8C31AA2462
:1008A0008431942C41012F08FA007A08F9000630AF
:1008B000A03E86008701413F8A00403F0A00843104
:1008C000FB00FC017C08003A0319672C4E2C7B08C6
:1008D000013A03194E2C033A0319462C013A031925
:1008E0004A2C073A03194E2C4E2C41013D10380872
:1008F000FB003708FA00B70A0319B80A7A0886001D
:100900007B08870001088C3191248431013041013A
:10091000B9020030BA3B39083A04031D902C912CDF
:10092000932C0630942C033008004001D000D101F4
:10093000D10A41013D199D2C9E2CDE2C400150080E
:10094000CF004F084101B600BD103D153D100E30DF
:100950004001CF004F084101BB00F430B40001302A
:10096000B500BD154C30A0000C30A100AC014C30DE
:10097000A2000C30A300AD014C30A4000C30A50047
:10098000AE014C30A6000C30A700AF010230A80029
:100990000030A900B0017C304001CD000C30CE0009
:1009A0008C31D92484318C31602484318D31A2255D
:1009B00084318731FD2784314001D1014001510844
:1009C00008008C3157248431FA0041013708860031
:1009D000380887007A0881000130B7070030B83D39
:1009E0000130B9020030BA3B39083A040319F92C36
:1009F000FA2CFF2C8C31782484310530272DBD153D
:100A0000092D8C31B9248431272D8C31B4248431C3
:100A1000272D2C08FA007A08F90021088A002008FE
:100A20000A008531FB00FC017C08003A0319192DEE
:100A3000052D7B08013A0319052D033A0319012DF1
:100A4000013A0319012D073A0319052D052D080058
:100A50004E019912EC304001CD000530CE008D31B1
:100A6000532585314E011912B9304001CD000F30A8
:100A7000CE008C31F1248531083042019F00903046
:100A80009D0024309E0044309B009C014930400171
:100A9000CD000C30CE008D314125853170304001C4
:100AA000CD000C30CE008D314A2585316C304001AF
:100AB000CD000C30CE008D31382585314001C40188
:100AC000C901C8010830CF004F08C700C601FD01A9
:100AD000C5014E01991608004001DB005708DA00F5
:100AE0005A08DE005908DD005808DC0040015B08A8
:100AF000843195248531003A03197F2D802D762D80
:100B0000C9304001D2000E30D3005C30DA005A0800
:100B1000D4008D31BE25853156304001CD000030E6
:100B2000CE000130CF000030D0008E3197268531C5
:100B300000304001D200D300D4018D31B025853181
:100B40008C31C32485318F3177278531013A0319E0
:100B5000AA2DAB2DA32D08004001DB005708DA00B9
:100B60005A08DE005908DD005808DC0040015B0827
:100B7000843195248531003A0319BF2DC02DB62D3F
:100B8000E4304001D2000E30D3005C30DA005A0865
:100B9000D4008D31BE25853156304001CD00003066
:100BA000CE000130CF000030D0008E319726853145
:100BB00000304001D200D300D4018D31B025853101
:100BC0008C31C32485318F3177278531013A031960
:100BD000EA2DEB2DE32D080040014608CA3E8600B1
:100BE0008701810142011D1DF62DF72D032E4001C5
:100BF0004608CA3E860087018114410157088A00D1
:100C000056080A00863142019D1C072E082E142E1C
:100C100040014608CA3E860087010115410155087A
:100C20008A0054080A00863140014608CA3E860000
:100C30008701010803191D2E1E2E252E4101530880
:100C40008A0052080A008631282E8E31AE26853160
:100C50000800103040019800803099009A012F3030
:100C6000920070309300FF3094003F307E01CE0040
:100C70005030C3002730B800C4011030B900C03074
:100C8000CF001030BA00C501C030D0003730BB00F3
:100C9000F030C600FF30D1003F30BC00F030C7005C
:100CA000FF30D20016307D01C5000F307E019F005D
:100CB0001330A6001430A70017307D01C6000D3098
:100CC000CB00080041018C018D018E018F01920142
:100CD0009301980101309A009F01FF3042018C007E
:100CE0001F308D008E018F019001920193019401BC
:100CF000950103309600033097000F309800843040
:100D000091004E010D10171448304001CD000C30F9
:100D1000CE008C31E52486314E018D109714483079
:100D20004001CD000C30CE008C31EB248631080020
:100D300000304001D8000030D7000030D60000302D
:100D4000D5004D1CA42EA52EAD2E5108D507520856
:100D5000D63D5308D73D5408D83D0130D135D20D8A
:100D6000D30DD40D890BAE2E0130D036CF0CCE0C66
:100D7000CD0C890BB52E50084F044E044D04031DB5
:100D8000C22EC32EA12E5808D0005708CF005608F7
:100D9000CE005508CD0008004101BD15DC2E8C3178
:100DA000A5248631FA2E8C315A2486310330FA2E4E
:100DB0008C31AA248631FA2E2C08FA007A08F90020
:100DC00021088A0020080A008631FB00FC017C080B
:100DD000003A0319EC2ED82E7B08013A0319D82EBD
:100DE000033A0319CF2E013A0319CF2E073A0319FC
:100DF000D32ED82E0800F400063074020318012FF9
:100E0000022F292F7435383E860001308700403F7D
:100E1000F200413FF3000430F336F20C890B0C2F43
:100E20007435383E860001308700720881024131F6
:100E30007308813B7F318C31CD2486317435383E47
:100E40008600013087007008810741317108813DBB
:100E50007F3108008C315D24873141013D1C312FE9
:100E6000322F402F8C31D3248731003A0319392F88
:100E70003A2F402F0F304001CA004A084101BB0001
:100E800041013B084001CA00CB01CA35CB0D0030FF
:100E90004A07840090304B3D8500013F8A00003FA7
:100EA0000A0087314001CC004C084101BB0008001A
:100EB0004001D90040015908843195248731003A16
:100EC0000319632F642F5A2F40015608CD000130BB
:100ED000CE005808D0005708CF008E3197268731B2
:100EE00000304001D200D300D4018D31B0258731CC
:100EF0008C31C32487318F3177278731013A031929
:100F0000822F832F7B2F080041013D100230FA0011
:100F10007A08BC00932F8C31A5248731AF2F8C31F8
:100F2000AA248731AF2F2E08FA007A08F90004307E
:100F3000A03E86008701413F8A00403F0A0087317A
:100F4000FB00FC017C08003A0319A72F8F2F7B08B8
:100F5000023A03198B2F013A03198B2F8F2F0800A8
:100F60004001D1004D084E040319B72FB82FC92FE7
:100F70005135A03E860087014D08C03F4E08C13F55
:100F80004F08D0005108AC3E860087015008810010
:100F9000D62F5135A03E860087014C30C03F0C3023
:100FA000C13F5108AC3E8600870181010800F40072
:100FB000700871040319DD2FDE2FEF2F7435A03E6A
:100FC000860087017008C03F7108C13F7208F300B6
:100FD0007408AC3E8600870173088100FC2F7435CD
:100FE000A03E860087014C30C03F0C30C13F7408E2
:100FF000AC3E86008701810108004E0119140800EB
:101890000800080008000800013008004301911406
:1018A0000800430111150800430191150800430188
:1018B0000C0808004E010F1408004E010F1008001C
:1018C0004E010F1008004301901208004E0119103C
:1018D00008004301111408008E31AE268C31080037
:1018E00042011D121D160800430191161116080031
:1018F000430191121116080087312A278C31080004
:101900004001BE01BE0A08003B3041019F000800B3
:101910008A3052018C000800F000700841019F00DD
:101920000800F000700843018C0008004101BD1060
:10193000BC010E3008008C314E248C31013008007F
:101940008C314E248C31023008008C314E248C3185
:10195000013008008C3151248C31003008008C316A
:1019600078248C31053008008C3174248C310A3095
:1019700008008C3174248C31093008004101BD10FD
:10198000BC010E30080000308F3157278C31080021
:1019900001308F3157278C31080041011E08F100BA
:1019A0001D08F00008004301110E890C890C013953
:1019B000080040014E08B1004D08B0000800520177
:1019C0000C0E890C890C0139080040014E08AD004D
:1019D0004D08AC00080040014E08AB004D08AA00BD
:1019E000080040014E08AF004D08AE00080040015D
:1019F0004E08A7004D08A600080040014E08A100AF
:101A00004D08A0000800640080010131890B042DFD
:101A10000034FE0012001E00FE0B0A2D00344101AE
:101A20003D108C3154248D310430080041013D14A7
:101A300036358C3191248D31033008000034003468
:101A400000340134013401340134003441013D14C7
:101A50000314360D8C3191248D31053008008C3102
:101A600084248D3106304001CD004D08BD000800B2
:101A700040014E084101D30040014D084101D20010
:101A8000080040014E084101D70040014D084101C6
:101A9000D600080040014E084101D50040014D0824
:101AA0004101D400080040014E084101D900400125
:101AB0004D084101D8000800403043018F00083034
:101AC0009000910113308D00901208004F01960193
:101AD0009701980199019A019B019C019D010800C1
:101AE0000034003400340134013401340134003452
:101AF0000134013401347608F1007508F0007708EC
:101B0000F8007808F20000308731D7278D310800BF
:101B100040012608270403198E2D8F2D942D2708A8
:101B20008A0026080A008D310800103051018D000E
:101B30008F019101053093009201101CA02DA12D61
:101B40009D2D08004301901AA62DA72DAF2D4030E2
:101B50008F0008309000910113308D00901608001E
:101B600040015308CE005208CD005408D500550856
:101B7000CF0002308731B0278D3108004001530873
:101B8000CE005208CD005408D5005508CF000030D3
:101B90008731B0278D3108004E010D1040012C080F
:101BA0002D040319D42DD52DDA2D2D088A002C08EB
:101BB0000A008D3108004E018D1040012A082B04C7
:101BC0000319E32DE42DE92D2B088A002A080A00C9
:101BD0008D3108004101BD1DEE2DEF2DF82D71084E
:101BE000B8007008B7007308BA007208B900BD11D8
:101BF00008004001D601A030DF005F08D7000730A1
:101C0000D8000030D90068308531AC258D3108000E
:101C10004001D601C030DF005F08D7000730D80090
:101C20000030D900683085316C258E3108004401C0
:101C30000E1D1B2E1C2E232E0E1071088D007008F9
:101C40008C000E14272E71088D0070088C0008007F
:101C50007908F000FF39031D0030F1000130F20077
:101C60000030F3008D31EA258E310030F500F600AA
:101C7000F7018D317B258E31023008007908F000A4
:101C8000FF39031D0030F1000230F2000030F30094
:101C90008D31EA258E310030F500F600F7018D31E7
:101CA0007B258E31023008007908F000FF39031DD2
:101CB0000030F1000130F2000030F3008D31EA25F0
:101CC0008E310030F500F600F7018D317B258E3125
:101CD000043008007908F000FF39031D0030F100DE
:101CE0000230F2000030F3008D31EA258E310030F1
:101CF000F500F600F7018D317B258E3104300800A8
:101D00004E01101040012308F1002208F0008E312E
:101D100017268E314001200821040319902E912EA0
:101D2000962E21088A0020080A008E310800410101
:101D3000BD1D9B2E9C2EAD2E40014E084101B800CA
:101D400040014D084101B700400150084101BA006F
:101D500040014F084101B900BD11080042011908B6
:101D6000F00040014608443E8600013087007008BC
:101D700081000130F0007008C60708304602031CDD
:101D8000C22EC32EC42EC6010130F0007008C50754
:101D900008007908023E860087010108F000013042
:101DA000F100790886008701403FF200413FF300CF
:101DB0008D31EA258E310030F500F600F7018D31C6
:101DC0007B258E31043008007908023E86008701A9
:101DD0000108F0000130F100790886008701403FDA
:101DE000F200413FF3008D31EA258E310030F500DD
:101DF000F600F7018D317B258E31023008008D31E0
:101E000066258E318D315C258E31863129268E31C5
:101E10008D3195258E318C3188248E318631622624
:101E20008E318F3198278E318F311B278E3185313E
:101E300028258E31080040304B019F00E0309D0086
:101E4000C0309C001D084001A9004B011C08400146
:101E5000A8004E018C1296164A304001CD000C307D
:101E6000CE008C31F7248F3190304B019E0008005A
:101E70004E018C12400129084B019D0040012808A9
:101E80004B019C0001304001A4070030A53D00300B
:101E900025020A3003192402031C4F2F502F562FFE
:101EA0008D3188258F314001A401A5010800400132
:101EB000CE00CF01CF0A4101BD185F2F602F742FD4
:101EC000BD144001CF014E080319672F682F6C2FF6
:101ED0004101BB01BB0A712F0230CD004D08410109
:101EE000BB008C3169248F3140014F08080040014C
:101EF000CE01CE0A4101BD187E2F7F2F952F3D11B7
:101F0000FF304001CD004D084101B6008C31602406
:101F10008F318C3166248F318C3163248F314101B4
:101F20003C084001CD004D08CE0040014E0808009D
:101F300044018F01900101309100FC308D00183078
:101F40008C004E01101044010D084001A300440113
:101F50000C084001A2004E011A144B304001CD0084
:101F60000C30CE008C31FD248F31333044018E0093
:101F700008000830400147020318BF2FC02FD92F97
:101F800048084C3E860001308700010842019A0053
:101F90000130F00070084001C80708304802031CF7
:101FA000D22FD32FD42FC8010130F0007008C707FB
:101FB000DB2F4E01191208004001D50040015508E1
:101FC000843195248F31003A0319E72FE82FDE2F53
:101FD00040015208CD000030CE005408D000530814
:101FE000CF008E3197268F318C31C8248F318F31BD
:101FF00077278F31013A0319FE2FFF2FF72F0800A3
:1020000096340C3426340D3416340D343D340434F7
:10201000E13404340F340D34CC3406349B340C34A6
:10202000A0340C34A5340C34AA340C34AF340C3442
:10203000B4340C34B9340C34BE340C348434073426
:1020400000340834003408340034083400340834D0
:08205000003410340034103498
:020000040001F9
:0A000E009C3FFF3F9F3FFF3FFF3F75
:00000001FF
